{
  "contractName": "FootballTicketNFT",
  "abi": [
    {
      "inputs": [
        {
          "internalType": "string",
          "name": "_baseTokenURI",
          "type": "string"
        }
      ],
      "stateMutability": "nonpayable",
      "type": "constructor"
    },
    {
      "anonymous": false,
      "inputs": [
        {
          "indexed": true,
          "internalType": "address",
          "name": "owner",
          "type": "address"
        },
        {
          "indexed": true,
          "internalType": "address",
          "name": "approved",
          "type": "address"
        },
        {
          "indexed": true,
          "internalType": "uint256",
          "name": "tokenId",
          "type": "uint256"
        }
      ],
      "name": "Approval",
      "type": "event"
    },
    {
      "anonymous": false,
      "inputs": [
        {
          "indexed": true,
          "internalType": "address",
          "name": "owner",
          "type": "address"
        },
        {
          "indexed": true,
          "internalType": "address",
          "name": "operator",
          "type": "address"
        },
        {
          "indexed": false,
          "internalType": "bool",
          "name": "approved",
          "type": "bool"
        }
      ],
      "name": "ApprovalForAll",
      "type": "event"
    },
    {
      "anonymous": false,
      "inputs": [
        {
          "indexed": true,
          "internalType": "address",
          "name": "from",
          "type": "address"
        },
        {
          "indexed": true,
          "internalType": "address",
          "name": "to",
          "type": "address"
        },
        {
          "indexed": true,
          "internalType": "uint256",
          "name": "tokenId",
          "type": "uint256"
        }
      ],
      "name": "Transfer",
      "type": "event"
    },
    {
      "inputs": [
        {
          "internalType": "address",
          "name": "to",
          "type": "address"
        },
        {
          "internalType": "uint256",
          "name": "tokenId",
          "type": "uint256"
        }
      ],
      "name": "approve",
      "outputs": [],
      "stateMutability": "nonpayable",
      "type": "function"
    },
    {
      "inputs": [
        {
          "internalType": "address",
          "name": "owner",
          "type": "address"
        }
      ],
      "name": "balanceOf",
      "outputs": [
        {
          "internalType": "uint256",
          "name": "",
          "type": "uint256"
        }
      ],
      "stateMutability": "view",
      "type": "function",
      "constant": true
    },
    {
      "inputs": [],
      "name": "baseTokenURI",
      "outputs": [
        {
          "internalType": "string",
          "name": "",
          "type": "string"
        }
      ],
      "stateMutability": "view",
      "type": "function",
      "constant": true
    },
    {
      "inputs": [
        {
          "internalType": "uint256",
          "name": "tokenId",
          "type": "uint256"
        }
      ],
      "name": "getApproved",
      "outputs": [
        {
          "internalType": "address",
          "name": "",
          "type": "address"
        }
      ],
      "stateMutability": "view",
      "type": "function",
      "constant": true
    },
    {
      "inputs": [
        {
          "internalType": "address",
          "name": "owner",
          "type": "address"
        },
        {
          "internalType": "address",
          "name": "operator",
          "type": "address"
        }
      ],
      "name": "isApprovedForAll",
      "outputs": [
        {
          "internalType": "bool",
          "name": "",
          "type": "bool"
        }
      ],
      "stateMutability": "view",
      "type": "function",
      "constant": true
    },
    {
      "inputs": [],
      "name": "name",
      "outputs": [
        {
          "internalType": "string",
          "name": "",
          "type": "string"
        }
      ],
      "stateMutability": "view",
      "type": "function",
      "constant": true
    },
    {
      "inputs": [],
      "name": "owner",
      "outputs": [
        {
          "internalType": "address",
          "name": "",
          "type": "address"
        }
      ],
      "stateMutability": "view",
      "type": "function",
      "constant": true
    },
    {
      "inputs": [
        {
          "internalType": "uint256",
          "name": "tokenId",
          "type": "uint256"
        }
      ],
      "name": "ownerOf",
      "outputs": [
        {
          "internalType": "address",
          "name": "",
          "type": "address"
        }
      ],
      "stateMutability": "view",
      "type": "function",
      "constant": true
    },
    {
      "inputs": [
        {
          "internalType": "address",
          "name": "from",
          "type": "address"
        },
        {
          "internalType": "address",
          "name": "to",
          "type": "address"
        },
        {
          "internalType": "uint256",
          "name": "tokenId",
          "type": "uint256"
        }
      ],
      "name": "safeTransferFrom",
      "outputs": [],
      "stateMutability": "nonpayable",
      "type": "function"
    },
    {
      "inputs": [
        {
          "internalType": "address",
          "name": "from",
          "type": "address"
        },
        {
          "internalType": "address",
          "name": "to",
          "type": "address"
        },
        {
          "internalType": "uint256",
          "name": "tokenId",
          "type": "uint256"
        },
        {
          "internalType": "bytes",
          "name": "data",
          "type": "bytes"
        }
      ],
      "name": "safeTransferFrom",
      "outputs": [],
      "stateMutability": "nonpayable",
      "type": "function"
    },
    {
      "inputs": [
        {
          "internalType": "address",
          "name": "operator",
          "type": "address"
        },
        {
          "internalType": "bool",
          "name": "approved",
          "type": "bool"
        }
      ],
      "name": "setApprovalForAll",
      "outputs": [],
      "stateMutability": "nonpayable",
      "type": "function"
    },
    {
      "inputs": [
        {
          "internalType": "bytes4",
          "name": "interfaceId",
          "type": "bytes4"
        }
      ],
      "name": "supportsInterface",
      "outputs": [
        {
          "internalType": "bool",
          "name": "",
          "type": "bool"
        }
      ],
      "stateMutability": "view",
      "type": "function",
      "constant": true
    },
    {
      "inputs": [],
      "name": "symbol",
      "outputs": [
        {
          "internalType": "string",
          "name": "",
          "type": "string"
        }
      ],
      "stateMutability": "view",
      "type": "function",
      "constant": true
    },
    {
      "inputs": [
        {
          "internalType": "uint256",
          "name": "",
          "type": "uint256"
        }
      ],
      "name": "ticketMetadata",
      "outputs": [
        {
          "internalType": "string",
          "name": "",
          "type": "string"
        }
      ],
      "stateMutability": "view",
      "type": "function",
      "constant": true
    },
    {
      "inputs": [
        {
          "internalType": "uint256",
          "name": "",
          "type": "uint256"
        }
      ],
      "name": "ticketPrices",
      "outputs": [
        {
          "internalType": "uint256",
          "name": "",
          "type": "uint256"
        }
      ],
      "stateMutability": "view",
      "type": "function",
      "constant": true
    },
    {
      "inputs": [
        {
          "internalType": "uint256",
          "name": "",
          "type": "uint256"
        }
      ],
      "name": "ticketRedeemed",
      "outputs": [
        {
          "internalType": "bool",
          "name": "",
          "type": "bool"
        }
      ],
      "stateMutability": "view",
      "type": "function",
      "constant": true
    },
    {
      "inputs": [],
      "name": "tokenCounter",
      "outputs": [
        {
          "internalType": "uint256",
          "name": "",
          "type": "uint256"
        }
      ],
      "stateMutability": "view",
      "type": "function",
      "constant": true
    },
    {
      "inputs": [
        {
          "internalType": "address",
          "name": "from",
          "type": "address"
        },
        {
          "internalType": "address",
          "name": "to",
          "type": "address"
        },
        {
          "internalType": "uint256",
          "name": "tokenId",
          "type": "uint256"
        }
      ],
      "name": "transferFrom",
      "outputs": [],
      "stateMutability": "nonpayable",
      "type": "function"
    },
    {
      "inputs": [
        {
          "internalType": "address",
          "name": "to",
          "type": "address"
        },
        {
          "internalType": "uint256",
          "name": "price",
          "type": "uint256"
        },
        {
          "internalType": "string",
          "name": "metadata",
          "type": "string"
        }
      ],
      "name": "createTicket",
      "outputs": [
        {
          "internalType": "uint256",
          "name": "",
          "type": "uint256"
        }
      ],
      "stateMutability": "nonpayable",
      "type": "function"
    },
    {
      "inputs": [
        {
          "internalType": "uint256",
          "name": "tokenId",
          "type": "uint256"
        }
      ],
      "name": "redeemTicket",
      "outputs": [],
      "stateMutability": "nonpayable",
      "type": "function"
    },
    {
      "inputs": [
        {
          "internalType": "string",
          "name": "_baseTokenURI",
          "type": "string"
        }
      ],
      "name": "setBaseTokenURI",
      "outputs": [],
      "stateMutability": "nonpayable",
      "type": "function"
    },
    {
      "inputs": [
        {
          "internalType": "uint256",
          "name": "tokenId",
          "type": "uint256"
        }
      ],
      "name": "burn",
      "outputs": [],
      "stateMutability": "nonpayable",
      "type": "function"
    },
    {
      "inputs": [
        {
          "internalType": "uint256",
          "name": "tokenId",
          "type": "uint256"
        }
      ],
      "name": "tokenURI",
      "outputs": [
        {
          "internalType": "string",
          "name": "",
          "type": "string"
        }
      ],
      "stateMutability": "view",
      "type": "function",
      "constant": true
    },
    {
      "inputs": [
        {
          "internalType": "address",
          "name": "_from",
          "type": "address"
        },
        {
          "internalType": "address",
          "name": "_to",
          "type": "address"
        },
        {
          "internalType": "uint256",
          "name": "tokenId",
          "type": "uint256"
        }
      ],
      "name": "buyTicket",
      "outputs": [],
      "stateMutability": "payable",
      "type": "function",
      "payable": true
    },
    {
      "inputs": [
        {
          "internalType": "uint256",
          "name": "tokenId",
          "type": "uint256"
        }
      ],
      "name": "generateQRCode",
      "outputs": [
        {
          "internalType": "string",
          "name": "",
          "type": "string"
        }
      ],
      "stateMutability": "view",
      "type": "function",
      "constant": true
    }
  ],
  "bytecode": "0x60806040523480156200001157600080fd5b506040516200429d3803806200429d8339818101604052810190620000379190620002be565b6040518060400160405280601981526020017f466f6f7462616c6c204d61746368205469636b6574204e4654000000000000008152506040518060400160405280600481526020017f464d544e000000000000000000000000000000000000000000000000000000008152508160009081620000b491906200055a565b508060019081620000c691906200055a565b50505033600660006101000a81548173ffffffffffffffffffffffffffffffffffffffff021916908373ffffffffffffffffffffffffffffffffffffffff160217905550600060078190555080600890816200012391906200055a565b505062000641565b6000604051905090565b600080fd5b600080fd5b600080fd5b600080fd5b6000601f19601f8301169050919050565b7f4e487b7100000000000000000000000000000000000000000000000000000000600052604160045260246000fd5b620001948262000149565b810181811067ffffffffffffffff82111715620001b657620001b56200015a565b5b80604052505050565b6000620001cb6200012b565b9050620001d9828262000189565b919050565b600067ffffffffffffffff821115620001fc57620001fb6200015a565b5b620002078262000149565b9050602081019050919050565b60005b838110156200023457808201518184015260208101905062000217565b60008484015250505050565b6000620002576200025184620001de565b620001bf565b90508281526020810184848401111562000276576200027562000144565b5b6200028384828562000214565b509392505050565b600082601f830112620002a357620002a26200013f565b5b8151620002b584826020860162000240565b91505092915050565b600060208284031215620002d757620002d662000135565b5b600082015167ffffffffffffffff811115620002f857620002f76200013a565b5b62000306848285016200028b565b91505092915050565b600081519050919050565b7f4e487b7100000000000000000000000000000000000000000000000000000000600052602260045260246000fd5b600060028204905060018216806200036257607f821691505b6020821081036200037857620003776200031a565b5b50919050565b60008190508160005260206000209050919050565b60006020601f8301049050919050565b600082821b905092915050565b600060088302620003e27fffffffffffffffffffffffffffffffffffffffffffffffffffffffffffffffff82620003a3565b620003ee8683620003a3565b95508019841693508086168417925050509392505050565b6000819050919050565b6000819050919050565b60006200043b620004356200042f8462000406565b62000410565b62000406565b9050919050565b6000819050919050565b62000457836200041a565b6200046f620004668262000442565b848454620003b0565b825550505050565b600090565b6200048662000477565b620004938184846200044c565b505050565b5b81811015620004bb57620004af6000826200047c565b60018101905062000499565b5050565b601f8211156200050a57620004d4816200037e565b620004df8462000393565b81016020851015620004ef578190505b62000507620004fe8562000393565b83018262000498565b50505b505050565b600082821c905092915050565b60006200052f600019846008026200050f565b1980831691505092915050565b60006200054a83836200051c565b9150826002028217905092915050565b62000565826200030f565b67ffffffffffffffff8111156200058157620005806200015a565b5b6200058d825462000349565b6200059a828285620004bf565b600060209050601f831160018114620005d25760008415620005bd578287015190505b620005c985826200053c565b86555062000639565b601f198416620005e2866200037e565b60005b828110156200060c57848901518255600182019150602085019450602081019050620005e5565b868310156200062c578489015162000628601f8916826200051c565b8355505b6001600288020188555050505b505050505050565b613c4c80620006516000396000f3fe6080604052600436106101665760003560e01c80638da5cb5b116100d1578063d082e3811161008a578063e44d311b11610064578063e44d311b14610551578063e985e9c51461058e578063ea05fc51146105cb578063f0043ef91461060857610166565b8063d082e381146104be578063d547cfb7146104e9578063d92d62ac1461051457610166565b80638da5cb5b146103bd57806395d89b41146103e8578063a22cb46514610413578063b5d46dfb1461043c578063b88d4fde14610458578063c87b56dd1461048157610166565b806323b872dd1161012357806323b872dd1461029f57806330176e13146102c857806342842e0e146102f157806342966c681461031a5780636352211e1461034357806370a082311461038057610166565b806301ffc9a71461016b57806306fdde03146101a8578063081812fc146101d3578063095ea7b31461021057806315f59d7f146102395780631a9be13914610262575b600080fd5b34801561017757600080fd5b50610192600480360381019061018d919061256f565b610645565b60405161019f91906125b7565b60405180910390f35b3480156101b457600080fd5b506101bd610727565b6040516101ca9190612662565b60405180910390f35b3480156101df57600080fd5b506101fa60048036038101906101f591906126ba565b6107b9565b6040516102079190612728565b60405180910390f35b34801561021c57600080fd5b506102376004803603810190610232919061276f565b6107ff565b005b34801561024557600080fd5b50610260600480360381019061025b91906126ba565b610916565b005b34801561026e57600080fd5b50610289600480360381019061028491906126ba565b610a6a565b6040516102969190612662565b60405180910390f35b3480156102ab57600080fd5b506102c660048036038101906102c191906127af565b610adf565b005b3480156102d457600080fd5b506102ef60048036038101906102ea9190612937565b610b3f565b005b3480156102fd57600080fd5b50610318600480360381019061031391906127af565b610be2565b005b34801561032657600080fd5b50610341600480360381019061033c91906126ba565b610c02565b005b34801561034f57600080fd5b5061036a600480360381019061036591906126ba565b610ccc565b6040516103779190612728565b60405180910390f35b34801561038c57600080fd5b506103a760048036038101906103a29190612980565b610d52565b6040516103b491906129bc565b60405180910390f35b3480156103c957600080fd5b506103d2610e09565b6040516103df9190612728565b60405180910390f35b3480156103f457600080fd5b506103fd610e2f565b60405161040a9190612662565b60405180910390f35b34801561041f57600080fd5b5061043a60048036038101906104359190612a03565b610ec1565b005b610456600480360381019061045191906127af565b610ed7565b005b34801561046457600080fd5b5061047f600480360381019061047a9190612ae4565b610f8c565b005b34801561048d57600080fd5b506104a860048036038101906104a391906126ba565b610fee565b6040516104b59190612662565b60405180910390f35b3480156104ca57600080fd5b506104d361134c565b6040516104e091906129bc565b60405180910390f35b3480156104f557600080fd5b506104fe611352565b60405161050b9190612662565b60405180910390f35b34801561052057600080fd5b5061053b600480360381019061053691906126ba565b6113e0565b60405161054891906125b7565b60405180910390f35b34801561055d57600080fd5b50610578600480360381019061057391906126ba565b611400565b60405161058591906129bc565b60405180910390f35b34801561059a57600080fd5b506105b560048036038101906105b09190612b67565b611418565b6040516105c291906125b7565b60405180910390f35b3480156105d757600080fd5b506105f260048036038101906105ed91906126ba565b6114ac565b6040516105ff9190612662565b60405180910390f35b34801561061457600080fd5b5061062f600480360381019061062a9190612ba7565b61154c565b60405161063c91906129bc565b60405180910390f35b60007f80ac58cd000000000000000000000000000000000000000000000000000000007bffffffffffffffffffffffffffffffffffffffffffffffffffffffff1916827bffffffffffffffffffffffffffffffffffffffffffffffffffffffff1916148061071057507f5b5e139f000000000000000000000000000000000000000000000000000000007bffffffffffffffffffffffffffffffffffffffffffffffffffffffff1916827bffffffffffffffffffffffffffffffffffffffffffffffffffffffff1916145b80610720575061071f82611677565b5b9050919050565b60606000805461073690612c45565b80601f016020809104026020016040519081016040528092919081815260200182805461076290612c45565b80156107af5780601f10610784576101008083540402835291602001916107af565b820191906000526020600020905b81548152906001019060200180831161079257829003601f168201915b5050505050905090565b60006107c4826116e1565b6004600083815260200190815260200160002060009054906101000a900473ffffffffffffffffffffffffffffffffffffffff169050919050565b600061080a82610ccc565b90508073ffffffffffffffffffffffffffffffffffffffff168373ffffffffffffffffffffffffffffffffffffffff160361087a576040517f08c379a000000000000000000000000000000000000000000000000000000000815260040161087190612ce8565b60405180910390fd5b8073ffffffffffffffffffffffffffffffffffffffff1661089961172c565b73ffffffffffffffffffffffffffffffffffffffff1614806108c857506108c7816108c261172c565b611418565b5b610907576040517f08c379a00000000000000000000000000000000000000000000000000000000081526004016108fe90612d7a565b60405180910390fd5b6109118383611734565b505050565b61091f816117ed565b61095e576040517f08c379a000000000000000000000000000000000000000000000000000000000815260040161095590612de6565b60405180910390fd5b3373ffffffffffffffffffffffffffffffffffffffff1661097e82610ccc565b73ffffffffffffffffffffffffffffffffffffffff16146109d4576040517f08c379a00000000000000000000000000000000000000000000000000000000081526004016109cb90612e78565b60405180910390fd5b60001515600a600083815260200190815260200160002060009054906101000a900460ff16151514610a3b576040517f08c379a0000000000000000000000000000000000000000000000000000000008152600401610a3290612ee4565b60405180910390fd5b6001600a600083815260200190815260200160002060006101000a81548160ff02191690831515021790555050565b6060610a75826117ed565b610ab4576040517f08c379a0000000000000000000000000000000000000000000000000000000008152600401610aab90612f76565b60405180910390fd5b6000604051602001610ac590613013565b604051602081830303815290604052905080915050919050565b610af0610aea61172c565b8261182e565b610b2f576040517f08c379a0000000000000000000000000000000000000000000000000000000008152600401610b269061309a565b60405180910390fd5b610b3a8383836118c3565b505050565b600660009054906101000a900473ffffffffffffffffffffffffffffffffffffffff1673ffffffffffffffffffffffffffffffffffffffff163373ffffffffffffffffffffffffffffffffffffffff1614610bcf576040517f08c379a0000000000000000000000000000000000000000000000000000000008152600401610bc69061312c565b60405180910390fd5b8060089081610bde91906132f8565b5050565b610bfd83838360405180602001604052806000815250610f8c565b505050565b610c0b816117ed565b610c4a576040517f08c379a0000000000000000000000000000000000000000000000000000000008152600401610c4190613416565b60405180910390fd5b3373ffffffffffffffffffffffffffffffffffffffff16610c6a82610ccc565b73ffffffffffffffffffffffffffffffffffffffff1614610cc0576040517f08c379a0000000000000000000000000000000000000000000000000000000008152600401610cb7906134a8565b60405180910390fd5b610cc981611bbc565b50565b600080610cd883611d0a565b9050600073ffffffffffffffffffffffffffffffffffffffff168173ffffffffffffffffffffffffffffffffffffffff1603610d49576040517f08c379a0000000000000000000000000000000000000000000000000000000008152600401610d4090613514565b60405180910390fd5b80915050919050565b60008073ffffffffffffffffffffffffffffffffffffffff168273ffffffffffffffffffffffffffffffffffffffff1603610dc2576040517f08c379a0000000000000000000000000000000000000000000000000000000008152600401610db9906135a6565b60405180910390fd5b600360008373ffffffffffffffffffffffffffffffffffffffff1673ffffffffffffffffffffffffffffffffffffffff168152602001908152602001600020549050919050565b600660009054906101000a900473ffffffffffffffffffffffffffffffffffffffff1681565b606060018054610e3e90612c45565b80601f0160208091040260200160405190810160405280929190818152602001828054610e6a90612c45565b8015610eb75780601f10610e8c57610100808354040283529160200191610eb7565b820191906000526020600020905b815481529060010190602001808311610e9a57829003601f168201915b5050505050905090565b610ed3610ecc61172c565b8383611d47565b5050565b610ee0816117ed565b610f1f576040517f08c379a0000000000000000000000000000000000000000000000000000000008152600401610f1690613416565b60405180910390fd5b60096000828152602001908152602001600020543414610f74576040517f08c379a0000000000000000000000000000000000000000000000000000000008152600401610f6b90613612565b60405180910390fd5b610f87610f8082610ccc565b33836118c3565b505050565b610f9d610f9761172c565b8361182e565b610fdc576040517f08c379a0000000000000000000000000000000000000000000000000000000008152600401610fd39061309a565b60405180910390fd5b610fe884848484611eb3565b50505050565b6060610ff9826117ed565b611038576040517f08c379a000000000000000000000000000000000000000000000000000000000815260040161102f906136a4565b60405180910390fd5b60006008805461104790612c45565b80601f016020809104026020016040519081016040528092919081815260200182805461107390612c45565b80156110c05780601f10611095576101008083540402835291602001916110c0565b820191906000526020600020905b8154815290600101906020018083116110a357829003601f168201915b5050505050905060008151036110e85760405180602001604052806000815250915050611347565b60006110f384611f0f565b905060006040518060400160405280600181526020017f2f000000000000000000000000000000000000000000000000000000000000008152509050600082518251855161114191906136f3565b61114b91906136f3565b67ffffffffffffffff8111156111645761116361280c565b5b6040519080825280601f01601f1916602001820160405280156111965781602001600182028036833780820191505090505b5090506000805b8551811015611225578581815181106111b9576111b8613727565b5b602001015160f81c60f81b8383806111d090613756565b9450815181106111e3576111e2613727565b5b60200101907effffffffffffffffffffffffffffffffffffffffffffffffffffffffffffff1916908160001a905350808061121d90613756565b91505061119d565b5060005b83518110156112b15783818151811061124557611244613727565b5b602001015160f81c60f81b83838061125c90613756565b94508151811061126f5761126e613727565b5b60200101907effffffffffffffffffffffffffffffffffffffffffffffffffffffffffffff1916908160001a90535080806112a990613756565b915050611229565b5060005b845181101561133d578481815181106112d1576112d0613727565b5b602001015160f81c60f81b8383806112e890613756565b9450815181106112fb576112fa613727565b5b60200101907effffffffffffffffffffffffffffffffffffffffffffffffffffffffffffff1916908160001a905350808061133590613756565b9150506112b5565b5081955050505050505b919050565b60075481565b6008805461135f90612c45565b80601f016020809104026020016040519081016040528092919081815260200182805461138b90612c45565b80156113d85780601f106113ad576101008083540402835291602001916113d8565b820191906000526020600020905b8154815290600101906020018083116113bb57829003601f168201915b505050505081565b600a6020528060005260406000206000915054906101000a900460ff1681565b60096020528060005260406000206000915090505481565b6000600560008473ffffffffffffffffffffffffffffffffffffffff1673ffffffffffffffffffffffffffffffffffffffff16815260200190815260200160002060008373ffffffffffffffffffffffffffffffffffffffff1673ffffffffffffffffffffffffffffffffffffffff16815260200190815260200160002060009054906101000a900460ff16905092915050565b600b60205280600052604060002060009150905080546114cb90612c45565b80601f01602080910402602001604051908101604052809291908181526020018280546114f790612c45565b80156115445780601f1061151957610100808354040283529160200191611544565b820191906000526020600020905b81548152906001019060200180831161152757829003601f168201915b505050505081565b6000600660009054906101000a900473ffffffffffffffffffffffffffffffffffffffff1673ffffffffffffffffffffffffffffffffffffffff163373ffffffffffffffffffffffffffffffffffffffff16146115de576040517f08c379a00000000000000000000000000000000000000000000000000000000081526004016115d5906137ea565b60405180910390fd5b600060075490506115ef8582611fdd565b83600960008381526020019081526020016000208190555082600b6000838152602001908152602001600020908161162791906132f8565b506000600a600083815260200190815260200160002060006101000a81548160ff0219169083151502179055506007600081548092919061166790613756565b9190505550809150509392505050565b60007f01ffc9a7000000000000000000000000000000000000000000000000000000007bffffffffffffffffffffffffffffffffffffffffffffffffffffffff1916827bffffffffffffffffffffffffffffffffffffffffffffffffffffffff1916149050919050565b6116ea816117ed565b611729576040517f08c379a000000000000000000000000000000000000000000000000000000000815260040161172090613514565b60405180910390fd5b50565b600033905090565b816004600083815260200190815260200160002060006101000a81548173ffffffffffffffffffffffffffffffffffffffff021916908373ffffffffffffffffffffffffffffffffffffffff160217905550808273ffffffffffffffffffffffffffffffffffffffff166117a783610ccc565b73ffffffffffffffffffffffffffffffffffffffff167f8c5be1e5ebec7d5bd14f71427d1e84f3dd0314c0f7b2291e5b200ac8c7c3b92560405160405180910390a45050565b60008073ffffffffffffffffffffffffffffffffffffffff1661180f83611d0a565b73ffffffffffffffffffffffffffffffffffffffff1614159050919050565b60008061183a83610ccc565b90508073ffffffffffffffffffffffffffffffffffffffff168473ffffffffffffffffffffffffffffffffffffffff16148061187c575061187b8185611418565b5b806118ba57508373ffffffffffffffffffffffffffffffffffffffff166118a2846107b9565b73ffffffffffffffffffffffffffffffffffffffff16145b91505092915050565b8273ffffffffffffffffffffffffffffffffffffffff166118e382610ccc565b73ffffffffffffffffffffffffffffffffffffffff1614611939576040517f08c379a00000000000000000000000000000000000000000000000000000000081526004016119309061387c565b60405180910390fd5b600073ffffffffffffffffffffffffffffffffffffffff168273ffffffffffffffffffffffffffffffffffffffff16036119a8576040517f08c379a000000000000000000000000000000000000000000000000000000000815260040161199f9061390e565b60405180910390fd5b6119b583838360016121fa565b8273ffffffffffffffffffffffffffffffffffffffff166119d582610ccc565b73ffffffffffffffffffffffffffffffffffffffff1614611a2b576040517f08c379a0000000000000000000000000000000000000000000000000000000008152600401611a229061387c565b60405180910390fd5b6004600082815260200190815260200160002060006101000a81549073ffffffffffffffffffffffffffffffffffffffff02191690556001600360008573ffffffffffffffffffffffffffffffffffffffff1673ffffffffffffffffffffffffffffffffffffffff168152602001908152602001600020600082825403925050819055506001600360008473ffffffffffffffffffffffffffffffffffffffff1673ffffffffffffffffffffffffffffffffffffffff16815260200190815260200160002060008282540192505081905550816002600083815260200190815260200160002060006101000a81548173ffffffffffffffffffffffffffffffffffffffff021916908373ffffffffffffffffffffffffffffffffffffffff160217905550808273ffffffffffffffffffffffffffffffffffffffff168473ffffffffffffffffffffffffffffffffffffffff167fddf252ad1be2c89b69c2b068fc378daa952ba7f163c4a11628f55a4df523b3ef60405160405180910390a4611bb78383836001612200565b505050565b6000611bc782610ccc565b9050611bd78160008460016121fa565b611be082610ccc565b90506004600083815260200190815260200160002060006101000a81549073ffffffffffffffffffffffffffffffffffffffff02191690556001600360008373ffffffffffffffffffffffffffffffffffffffff1673ffffffffffffffffffffffffffffffffffffffff168152602001908152602001600020600082825403925050819055506002600083815260200190815260200160002060006101000a81549073ffffffffffffffffffffffffffffffffffffffff021916905581600073ffffffffffffffffffffffffffffffffffffffff168273ffffffffffffffffffffffffffffffffffffffff167fddf252ad1be2c89b69c2b068fc378daa952ba7f163c4a11628f55a4df523b3ef60405160405180910390a4611d06816000846001612200565b5050565b60006002600083815260200190815260200160002060009054906101000a900473ffffffffffffffffffffffffffffffffffffffff169050919050565b8173ffffffffffffffffffffffffffffffffffffffff168373ffffffffffffffffffffffffffffffffffffffff1603611db5576040517f08c379a0000000000000000000000000000000000000000000000000000000008152600401611dac9061397a565b60405180910390fd5b80600560008573ffffffffffffffffffffffffffffffffffffffff1673ffffffffffffffffffffffffffffffffffffffff16815260200190815260200160002060008473ffffffffffffffffffffffffffffffffffffffff1673ffffffffffffffffffffffffffffffffffffffff16815260200190815260200160002060006101000a81548160ff0219169083151502179055508173ffffffffffffffffffffffffffffffffffffffff168373ffffffffffffffffffffffffffffffffffffffff167f17307eab39ab6107e8899845ad3d59bd9653f200f220920489ca2b5937696c3183604051611ea691906125b7565b60405180910390a3505050565b611ebe8484846118c3565b611eca84848484612206565b611f09576040517f08c379a0000000000000000000000000000000000000000000000000000000008152600401611f0090613a0c565b60405180910390fd5b50505050565b606060006001611f1e8461238d565b01905060008167ffffffffffffffff811115611f3d57611f3c61280c565b5b6040519080825280601f01601f191660200182016040528015611f6f5781602001600182028036833780820191505090505b509050600082602001820190505b600115611fd2578080600190039150507f3031323334353637383961626364656600000000000000000000000000000000600a86061a8153600a8581611fc657611fc5613a2c565b5b04945060008503611f7d575b819350505050919050565b600073ffffffffffffffffffffffffffffffffffffffff168273ffffffffffffffffffffffffffffffffffffffff160361204c576040517f08c379a000000000000000000000000000000000000000000000000000000000815260040161204390613aa7565b60405180910390fd5b612055816117ed565b15612095576040517f08c379a000000000000000000000000000000000000000000000000000000000815260040161208c90613b13565b60405180910390fd5b6120a36000838360016121fa565b6120ac816117ed565b156120ec576040517f08c379a00000000000000000000000000000000000000000000000000000000081526004016120e390613b13565b60405180910390fd5b6001600360008473ffffffffffffffffffffffffffffffffffffffff1673ffffffffffffffffffffffffffffffffffffffff16815260200190815260200160002060008282540192505081905550816002600083815260200190815260200160002060006101000a81548173ffffffffffffffffffffffffffffffffffffffff021916908373ffffffffffffffffffffffffffffffffffffffff160217905550808273ffffffffffffffffffffffffffffffffffffffff16600073ffffffffffffffffffffffffffffffffffffffff167fddf252ad1be2c89b69c2b068fc378daa952ba7f163c4a11628f55a4df523b3ef60405160405180910390a46121f6600083836001612200565b5050565b50505050565b50505050565b60006122278473ffffffffffffffffffffffffffffffffffffffff166124e0565b15612380578373ffffffffffffffffffffffffffffffffffffffff1663150b7a0261225061172c565b8786866040518563ffffffff1660e01b81526004016122729493929190613b88565b6020604051808303816000875af19250505080156122ae57506040513d601f19601f820116820180604052508101906122ab9190613be9565b60015b612330573d80600081146122de576040519150601f19603f3d011682016040523d82523d6000602084013e6122e3565b606091505b506000815103612328576040517f08c379a000000000000000000000000000000000000000000000000000000000815260040161231f90613a0c565b60405180910390fd5b805181602001fd5b63150b7a0260e01b7bffffffffffffffffffffffffffffffffffffffffffffffffffffffff1916817bffffffffffffffffffffffffffffffffffffffffffffffffffffffff191614915050612385565b600190505b949350505050565b600080600090507a184f03e93ff9f4daa797ed6e38ed64bf6a1f01000000000000000083106123eb577a184f03e93ff9f4daa797ed6e38ed64bf6a1f01000000000000000083816123e1576123e0613a2c565b5b0492506040810190505b6d04ee2d6d415b85acef81000000008310612428576d04ee2d6d415b85acef8100000000838161241e5761241d613a2c565b5b0492506020810190505b662386f26fc10000831061245757662386f26fc10000838161244d5761244c613a2c565b5b0492506010810190505b6305f5e1008310612480576305f5e100838161247657612475613a2c565b5b0492506008810190505b61271083106124a557612710838161249b5761249a613a2c565b5b0492506004810190505b606483106124c857606483816124be576124bd613a2c565b5b0492506002810190505b600a83106124d7576001810190505b80915050919050565b6000808273ffffffffffffffffffffffffffffffffffffffff163b119050919050565b6000604051905090565b600080fd5b600080fd5b60007fffffffff0000000000000000000000000000000000000000000000000000000082169050919050565b61254c81612517565b811461255757600080fd5b50565b60008135905061256981612543565b92915050565b6000602082840312156125855761258461250d565b5b60006125938482850161255a565b91505092915050565b60008115159050919050565b6125b18161259c565b82525050565b60006020820190506125cc60008301846125a8565b92915050565b600081519050919050565b600082825260208201905092915050565b60005b8381101561260c5780820151818401526020810190506125f1565b60008484015250505050565b6000601f19601f8301169050919050565b6000612634826125d2565b61263e81856125dd565b935061264e8185602086016125ee565b61265781612618565b840191505092915050565b6000602082019050818103600083015261267c8184612629565b905092915050565b6000819050919050565b61269781612684565b81146126a257600080fd5b50565b6000813590506126b48161268e565b92915050565b6000602082840312156126d0576126cf61250d565b5b60006126de848285016126a5565b91505092915050565b600073ffffffffffffffffffffffffffffffffffffffff82169050919050565b6000612712826126e7565b9050919050565b61272281612707565b82525050565b600060208201905061273d6000830184612719565b92915050565b61274c81612707565b811461275757600080fd5b50565b60008135905061276981612743565b92915050565b600080604083850312156127865761278561250d565b5b60006127948582860161275a565b92505060206127a5858286016126a5565b9150509250929050565b6000806000606084860312156127c8576127c761250d565b5b60006127d68682870161275a565b93505060206127e78682870161275a565b92505060406127f8868287016126a5565b9150509250925092565b600080fd5b600080fd5b7f4e487b7100000000000000000000000000000000000000000000000000000000600052604160045260246000fd5b61284482612618565b810181811067ffffffffffffffff821117156128635761286261280c565b5b80604052505050565b6000612876612503565b9050612882828261283b565b919050565b600067ffffffffffffffff8211156128a2576128a161280c565b5b6128ab82612618565b9050602081019050919050565b82818337600083830152505050565b60006128da6128d584612887565b61286c565b9050828152602081018484840111156128f6576128f5612807565b5b6129018482856128b8565b509392505050565b600082601f83011261291e5761291d612802565b5b813561292e8482602086016128c7565b91505092915050565b60006020828403121561294d5761294c61250d565b5b600082013567ffffffffffffffff81111561296b5761296a612512565b5b61297784828501612909565b91505092915050565b6000602082840312156129965761299561250d565b5b60006129a48482850161275a565b91505092915050565b6129b681612684565b82525050565b60006020820190506129d160008301846129ad565b92915050565b6129e08161259c565b81146129eb57600080fd5b50565b6000813590506129fd816129d7565b92915050565b60008060408385031215612a1a57612a1961250d565b5b6000612a288582860161275a565b9250506020612a39858286016129ee565b9150509250929050565b600067ffffffffffffffff821115612a5e57612a5d61280c565b5b612a6782612618565b9050602081019050919050565b6000612a87612a8284612a43565b61286c565b905082815260208101848484011115612aa357612aa2612807565b5b612aae8482856128b8565b509392505050565b600082601f830112612acb57612aca612802565b5b8135612adb848260208601612a74565b91505092915050565b60008060008060808587031215612afe57612afd61250d565b5b6000612b0c8782880161275a565b9450506020612b1d8782880161275a565b9350506040612b2e878288016126a5565b925050606085013567ffffffffffffffff811115612b4f57612b4e612512565b5b612b5b87828801612ab6565b91505092959194509250565b60008060408385031215612b7e57612b7d61250d565b5b6000612b8c8582860161275a565b9250506020612b9d8582860161275a565b9150509250929050565b600080600060608486031215612bc057612bbf61250d565b5b6000612bce8682870161275a565b9350506020612bdf868287016126a5565b925050604084013567ffffffffffffffff811115612c0057612bff612512565b5b612c0c86828701612909565b9150509250925092565b7f4e487b7100000000000000000000000000000000000000000000000000000000600052602260045260246000fd5b60006002820490506001821680612c5d57607f821691505b602082108103612c7057612c6f612c16565b5b50919050565b7f4552433732313a20617070726f76616c20746f2063757272656e74206f776e6560008201527f7200000000000000000000000000000000000000000000000000000000000000602082015250565b6000612cd26021836125dd565b9150612cdd82612c76565b604082019050919050565b60006020820190508181036000830152612d0181612cc5565b9050919050565b7f4552433732313a20617070726f76652063616c6c6572206973206e6f7420746f60008201527f6b656e206f776e6572206f7220617070726f76656420666f7220616c6c000000602082015250565b6000612d64603d836125dd565b9150612d6f82612d08565b604082019050919050565b60006020820190508181036000830152612d9381612d57565b9050919050565b7f5469636b657420646f6573206e6f742065786973740000000000000000000000600082015250565b6000612dd06015836125dd565b9150612ddb82612d9a565b602082019050919050565b60006020820190508181036000830152612dff81612dc3565b9050919050565b7f596f7520617265206e6f7420746865206f776e6572206f66207468697320746960008201527f636b657400000000000000000000000000000000000000000000000000000000602082015250565b6000612e626024836125dd565b9150612e6d82612e06565b604082019050919050565b60006020820190508181036000830152612e9181612e55565b9050919050565b7f5469636b65742068617320616c7265616479206265656e2072656465656d6564600082015250565b6000612ece6020836125dd565b9150612ed982612e98565b602082019050919050565b60006020820190508181036000830152612efd81612ec1565b9050919050565b7f515220636f646520717565727920666f72206e6f6e6578697374656e7420746f60008201527f6b656e0000000000000000000000000000000000000000000000000000000000602082015250565b6000612f606023836125dd565b9150612f6b82612f04565b604082019050919050565b60006020820190508181036000830152612f8f81612f53565b9050919050565b600081905092915050565b7f68747470733a2f2f7777772e77656166746563682e636f6d2f67656e6572616c60008201527f2d36000000000000000000000000000000000000000000000000000000000000602082015250565b6000612ffd602283612f96565b915061300882612fa1565b602282019050919050565b600061301e82612ff0565b9150819050919050565b7f4552433732313a2063616c6c6572206973206e6f7420746f6b656e206f776e6560008201527f72206f7220617070726f76656400000000000000000000000000000000000000602082015250565b6000613084602d836125dd565b915061308f82613028565b604082019050919050565b600060208201905081810360008301526130b381613077565b9050919050565b7f4f6e6c79206f776e65722063616e20736574206261736520746f6b656e20555260008201527f4900000000000000000000000000000000000000000000000000000000000000602082015250565b60006131166021836125dd565b9150613121826130ba565b604082019050919050565b6000602082019050818103600083015261314581613109565b9050919050565b60008190508160005260206000209050919050565b60006020601f8301049050919050565b600082821b905092915050565b6000600883026131ae7fffffffffffffffffffffffffffffffffffffffffffffffffffffffffffffffff82613171565b6131b88683613171565b95508019841693508086168417925050509392505050565b6000819050919050565b60006131f56131f06131eb84612684565b6131d0565b612684565b9050919050565b6000819050919050565b61320f836131da565b61322361321b826131fc565b84845461317e565b825550505050565b600090565b61323861322b565b613243818484613206565b505050565b5b818110156132675761325c600082613230565b600181019050613249565b5050565b601f8211156132ac5761327d8161314c565b61328684613161565b81016020851015613295578190505b6132a96132a185613161565b830182613248565b50505b505050565b600082821c905092915050565b60006132cf600019846008026132b1565b1980831691505092915050565b60006132e883836132be565b9150826002028217905092915050565b613301826125d2565b67ffffffffffffffff81111561331a5761331961280c565b5b6133248254612c45565b61332f82828561326b565b600060209050601f8311600181146133625760008415613350578287015190505b61335a85826132dc565b8655506133c2565b601f1984166133708661314c565b60005b8281101561339857848901518255600182019150602085019450602081019050613373565b868310156133b557848901516133b1601f8916826132be565b8355505b6001600288020188555050505b505050505050565b7f546f6b656e20646f6573206e6f74206578697374000000000000000000000000600082015250565b60006134006014836125dd565b915061340b826133ca565b602082019050919050565b6000602082019050818103600083015261342f816133f3565b9050919050565b7f596f7520617265206e6f7420746865206f776e6572206f66207468697320746f60008201527f6b656e0000000000000000000000000000000000000000000000000000000000602082015250565b60006134926023836125dd565b915061349d82613436565b604082019050919050565b600060208201905081810360008301526134c181613485565b9050919050565b7f4552433732313a20696e76616c696420746f6b656e2049440000000000000000600082015250565b60006134fe6018836125dd565b9150613509826134c8565b602082019050919050565b6000602082019050818103600083015261352d816134f1565b9050919050565b7f4552433732313a2061646472657373207a65726f206973206e6f74206120766160008201527f6c6964206f776e65720000000000000000000000000000000000000000000000602082015250565b60006135906029836125dd565b915061359b82613534565b604082019050919050565b600060208201905081810360008301526135bf81613583565b9050919050565b7f496e636f7272656374207061796d656e7420616d6f756e740000000000000000600082015250565b60006135fc6018836125dd565b9150613607826135c6565b602082019050919050565b6000602082019050818103600083015261362b816135ef565b9050919050565b7f546f6b656e2055524920717565727920666f72206e6f6e6578697374656e742060008201527f746f6b656e000000000000000000000000000000000000000000000000000000602082015250565b600061368e6025836125dd565b915061369982613632565b604082019050919050565b600060208201905081810360008301526136bd81613681565b9050919050565b7f4e487b7100000000000000000000000000000000000000000000000000000000600052601160045260246000fd5b60006136fe82612684565b915061370983612684565b9250828201905080821115613721576137206136c4565b5b92915050565b7f4e487b7100000000000000000000000000000000000000000000000000000000600052603260045260246000fd5b600061376182612684565b91507fffffffffffffffffffffffffffffffffffffffffffffffffffffffffffffffff8203613793576137926136c4565b5b600182019050919050565b7f4f6e6c79206f776e65722063616e20637265617465207469636b657473000000600082015250565b60006137d4601d836125dd565b91506137df8261379e565b602082019050919050565b60006020820190508181036000830152613803816137c7565b9050919050565b7f4552433732313a207472616e736665722066726f6d20696e636f72726563742060008201527f6f776e6572000000000000000000000000000000000000000000000000000000602082015250565b60006138666025836125dd565b91506138718261380a565b604082019050919050565b6000602082019050818103600083015261389581613859565b9050919050565b7f4552433732313a207472616e7366657220746f20746865207a65726f2061646460008201527f7265737300000000000000000000000000000000000000000000000000000000602082015250565b60006138f86024836125dd565b91506139038261389c565b604082019050919050565b60006020820190508181036000830152613927816138eb565b9050919050565b7f4552433732313a20617070726f766520746f2063616c6c657200000000000000600082015250565b60006139646019836125dd565b915061396f8261392e565b602082019050919050565b6000602082019050818103600083015261399381613957565b9050919050565b7f4552433732313a207472616e7366657220746f206e6f6e20455243373231526560008201527f63656976657220696d706c656d656e7465720000000000000000000000000000602082015250565b60006139f66032836125dd565b9150613a018261399a565b604082019050919050565b60006020820190508181036000830152613a25816139e9565b9050919050565b7f4e487b7100000000000000000000000000000000000000000000000000000000600052601260045260246000fd5b7f4552433732313a206d696e7420746f20746865207a65726f2061646472657373600082015250565b6000613a916020836125dd565b9150613a9c82613a5b565b602082019050919050565b60006020820190508181036000830152613ac081613a84565b9050919050565b7f4552433732313a20746f6b656e20616c7265616479206d696e74656400000000600082015250565b6000613afd601c836125dd565b9150613b0882613ac7565b602082019050919050565b60006020820190508181036000830152613b2c81613af0565b9050919050565b600081519050919050565b600082825260208201905092915050565b6000613b5a82613b33565b613b648185613b3e565b9350613b748185602086016125ee565b613b7d81612618565b840191505092915050565b6000608082019050613b9d6000830187612719565b613baa6020830186612719565b613bb760408301856129ad565b8181036060830152613bc98184613b4f565b905095945050505050565b600081519050613be381612543565b92915050565b600060208284031215613bff57613bfe61250d565b5b6000613c0d84828501613bd4565b9150509291505056fea2646970667358221220cd3c0ad1900e3c3d3b5a022913142dd7a1da6998a7be012af9478523ef9e11f364736f6c63430008130033",
  "immutableReferences": {},
  "source": "pragma solidity ^0.8.0;\r\n\r\nimport \"@openzeppelin/contracts/token/ERC721/ERC721.sol\";\r\nimport \"@openzeppelin/contracts/utils/Strings.sol\";\r\n\r\ncontract FootballTicketNFT is ERC721 {\r\n    address public owner;\r\n    uint256 public tokenCounter;\r\n    string public baseTokenURI;\r\n    mapping(uint256 => uint256) public ticketPrices;\r\n    mapping(uint256 => bool) public ticketRedeemed;\r\n    mapping(uint256 => string) public ticketMetadata;\r\n\r\n    constructor(string memory _baseTokenURI) ERC721(\"Football Match Ticket NFT\", \"FMTN\") {\r\n        owner = msg.sender;\r\n        tokenCounter = 0;\r\n        baseTokenURI = _baseTokenURI;\r\n    }\r\nfunction createTicket(address to, uint256 price, string memory metadata) public returns (uint256) {\r\n    require(msg.sender == owner, \"Only owner can create tickets\");\r\n    uint256 tokenId = tokenCounter;\r\n    _mint(to, tokenId);\r\n    ticketPrices[tokenId] = price;\r\n    ticketMetadata[tokenId] = metadata;\r\n    ticketRedeemed[tokenId] = false;  // set redeemed to false by default\r\n    tokenCounter++;\r\n    return tokenId;\r\n}\r\n\r\n\r\n    function redeemTicket(uint256 tokenId) public {\r\n        require(_exists(tokenId), \"Ticket does not exist\");\r\n        require(ownerOf(tokenId) == msg.sender, \"You are not the owner of this ticket\");\r\n        require(ticketRedeemed[tokenId] == false, \"Ticket has already been redeemed\");\r\n        ticketRedeemed[tokenId] = true;\r\n    }\r\n\r\n    function setBaseTokenURI(string memory _baseTokenURI) public {\r\n        require(msg.sender == owner, \"Only owner can set base token URI\");\r\n        baseTokenURI = _baseTokenURI;\r\n    }\r\n\r\n    function burn(uint256 tokenId) public {\r\n        require(_exists(tokenId), \"Token does not exist\");\r\n        require(ownerOf(tokenId) == msg.sender, \"You are not the owner of this token\");\r\n        _burn(tokenId);\r\n    }\r\n\r\n    function tokenURI(uint256 tokenId) public view virtual override returns (string memory) {\r\n        require(_exists(tokenId), \"Token URI query for nonexistent token\");\r\n        bytes memory uriBytes = bytes(baseTokenURI);\r\n        if (uriBytes.length == 0) {\r\n            return \"\";\r\n        } else {\r\n            bytes memory tokenIdBytes = bytes(Strings.toString(tokenId));\r\n            bytes memory slashBytes = bytes(\"/\");\r\n            bytes memory combinedBytes = new bytes(uriBytes.length + slashBytes.length + tokenIdBytes.length);\r\n            uint256 k = 0;\r\n            for (uint256 i = 0; i < uriBytes.length; i++) {\r\n                combinedBytes[k++] = uriBytes[i];\r\n            }\r\n            for (uint256 i = 0; i < slashBytes.length; i++) {\r\n                combinedBytes[k++] = slashBytes[i];\r\n            }\r\n            for (uint256 i = 0; i < tokenIdBytes.length; i++) {\r\n                combinedBytes[k++] = tokenIdBytes[i];\r\n            }\r\n            return string(combinedBytes);\r\n        }\r\n    }\r\nfunction buyTicket(address _from, address _to, uint256 tokenId) public payable {\r\n    require(_exists(tokenId), \"Token does not exist\");\r\n    require(msg.value == ticketPrices[tokenId], \"Incorrect payment amount\");\r\n    _transfer(ownerOf(tokenId), msg.sender, tokenId);\r\n}    \r\n\r\nfunction generateQRCode(uint256 tokenId) public view returns (string memory) {\r\n    require(_exists(tokenId), \"QR code query for nonexistent token\");\r\n    string memory qrData = string(abi.encodePacked(\"https://www.weaftech.com/general-6\"));\r\n    return qrData;\r\n}\r\n}\r\n",
  "sourcePath": "C:\\Users\\yatharth\\football-ticket-nft\\contracts\\nft.sol",
  "compiler": {
    "name": "solc",
    "version": "0.8.19+commit.7dd6d404.Emscripten.clang"
  },
  "schemaVersion": "3.4.13",
  "updatedAt": "2023-04-02T15:45:35.465Z",
  "networkType": "ethereum",
  "devdoc": {
    "events": {
      "Approval(address,address,uint256)": {
        "details": "Emitted when `owner` enables `approved` to manage the `tokenId` token."
      },
      "ApprovalForAll(address,address,bool)": {
        "details": "Emitted when `owner` enables or disables (`approved`) `operator` to manage all of its assets."
      },
      "Transfer(address,address,uint256)": {
        "details": "Emitted when `tokenId` token is transferred from `from` to `to`."
      }
    },
    "kind": "dev",
    "methods": {
      "approve(address,uint256)": {
        "details": "See {IERC721-approve}."
      },
      "balanceOf(address)": {
        "details": "See {IERC721-balanceOf}."
      },
      "getApproved(uint256)": {
        "details": "See {IERC721-getApproved}."
      },
      "isApprovedForAll(address,address)": {
        "details": "See {IERC721-isApprovedForAll}."
      },
      "name()": {
        "details": "See {IERC721Metadata-name}."
      },
      "ownerOf(uint256)": {
        "details": "See {IERC721-ownerOf}."
      },
      "safeTransferFrom(address,address,uint256)": {
        "details": "See {IERC721-safeTransferFrom}."
      },
      "safeTransferFrom(address,address,uint256,bytes)": {
        "details": "See {IERC721-safeTransferFrom}."
      },
      "setApprovalForAll(address,bool)": {
        "details": "See {IERC721-setApprovalForAll}."
      },
      "supportsInterface(bytes4)": {
        "details": "See {IERC165-supportsInterface}."
      },
      "symbol()": {
        "details": "See {IERC721Metadata-symbol}."
      },
      "tokenURI(uint256)": {
        "details": "See {IERC721Metadata-tokenURI}."
      },
      "transferFrom(address,address,uint256)": {
        "details": "See {IERC721-transferFrom}."
      }
    },
    "version": 1
  },
  "userdoc": {
    "kind": "user",
    "methods": {},
    "version": 1
  }
}